:10000000E804002029640000356400003564000025
:1000100000000000000000000000000000000000E0
:100020000000000000000000000000003564000037
:10003000000000000000000035640000356400008E
:100040006D5B0000195B000039450000534500005E
:10005000D14400000945000035640000356400000B
:10006000295500001556000061560000AD560000ED
:10007000356400003564000035640000356400001C
:10008000356400003564000035640000356400000C
:1000900035640000356400003564000035640000FC
:1000A00035640000356400003564000035640000EC
:1000B000515D0000356400003564000035640000C7
:1000C000F7B506001F0068460021017068460089E8
:1000D000002801D100202EE102220A21002004F094
:1000E00045FA95480121016094480121016005F01D
:1000F0008DF892480021016005F088F88E480021B3
:10010000016005F083F80720040064B2002C19D4C4
:10011000F6B230002041C00703D5884801210160B4
:1001200002E086480021016005F070F88248012154
:10013000016005F06BF880480021016005F066F869
:10014000641EE2E700220A21002004F00FFA05F005
:100150005DF879480121016005F058F8774800689A
:10016000002803D0684601210170CEE072480021CA
:10017000016005F04BF868466946898889B2090A2A
:100180008170684669468988417002220A210020F0
:1001900004F0ECF90720040064B2002C19D468467E
:1001A00080782041C00703D564480121016002E046
:1001B00062480021016005F029F85F4801210160D3
:1001C00005F024F85C480021016005F01FF8641E6A
:1001D000E2E700220A21002004F0C8F905F016F831
:1001E00055480121016005F011F8544800680028C5
:1001F00003D068460121017087E04F48002101606B
:1002000005F004F802220A21002004F0AFF90720CB
:10021000040064B2002C19D4684640782041C0071D
:1002200003D546480121016002E0444800210160F5
:1002300004F0ECFF40480121016004F0E7FF3E4874
:100240000021016004F0E2FF641EE2E700220A21BF
:10025000002004F08BF904F0D9FF37480121016038
:1002600004F0D4FF35480068002803D06846012117
:1002700001704AE030480021016004F0C7FF00200F
:10028000050068460089ADB285423ED202220A21AD
:10029000002004F06BF90720040064B2002C18D48D
:1002A00038782041C00703D524480121016002E0CD
:1002B00022480021016004F0A9FF1F4801210160CC
:1002C00004F0A4FF1C480021016004F09FFF641E9D
:1002D000E3E700220A21002004F048F904F096FF29
:1002E00015480121016004F091FF144800680028BE
:1002F00003D068460121017007E00F48002101602A
:1003000004F084FF6D1C7F1CBBE702220A21002041
:1003100004F02CF909480021016004F077FF064839
:100320000121016004F072FF04480121016004F022
:100330006DFF68460078FEBD2C42005028420050F8
:1003400010B50024A64B0122A6497020FFF7B8FE85
:100350000400A54B0122A5497020FFF7B1FE04005F
:10036000C5A301228021C9017020FFF7A9FE040066
:10037000C2A306229E497020FFF7A2FE040000BF20
:10038000C0A302229B497020FFF79AFE040000BF21
:10039000BDA3042298497020FFF792FE040000BF1D
:1003A000BAA3012295497020FFF78AFE040000BF1E
:1003B000B7A3082292497020FFF782FE040000BF15
:1003C000B5A303228F497020FFF77AFE040000BF17
:1003D000B2A30E228C497020FFF772FE040000BF0A
:1003E000B2A3022289497020FFF76AFE040000BF11
:1003F000AFA3032286497020FFF762FE040000BF0E
:10040000ACA3012283497020FFF75AFE040000BF0D
:10041000A9A3022280497020FFF752FE040000BF0A
:10042000A6A301227D497020FFF74AFE040000BF09
:10043000A3A301227A497020FFF742FE040000BF07
:10044000A0A3052277497020FFF73AFE040000BF01
:100450009EA3042274497020FFF732FE040000BFFF
:100460009BA3022271497020FFF72AFE040000BFFF
:1004700098A305226E497020FFF722FE040000BFFA
:1004800096A3012257497020FFF71AFE040000BF0F
:1004900093A3012267497020FFF712FE040000BFFA
:1004A00090A3012264497020FFF70AFE040000BFF8
:1004B0008DA3012261497020FFF702FE040000BFF6
:1004C0008AA301225E497020FFF7FAFD040000BFF5
:1004D00087A301225B497020FFF7F2FD040000BFF3
:1004E00084A3022258497020FFF7EAFD0400574B0D
:1004F000574A802109017020FFF7E2FD04005548AA
:100500000068002809D0022819D00FD3042828D069
:100510001ED3062837D02DD33FE04F4BCE22D2003A
:1005200000217020FFF7CCFD040036E04B4BCE22BB
:10053000D20000217020FFF7C3FD04002DE0484BDE
:10054000CE22D20000217020FFF7BAFD040024E083
:10055000444BCE22D20000217020FFF7B1FD0400F1
:100560001BE0414BCE22D20000217020FFF7A8FDF6
:10057000040012E03D4BCE22D20000217020FFF794
:100580009FFD040009E000BF5FA3CE22D20000213E
:100590007020FFF795FD0400FFE700BF56A301227E
:1005A00010497020FFF78CFD040000BF53A3012207
:1005B0000E497020FFF784FD040000BF50A3012204
:1005C0002B497020FFF77CFD040000BF4DA30122E2
:1005D00027497020FFF774FD0400012010BD0000C2
:1005E00074060000EB40000075060000F6400000B5
:1005F00002400000154000001140000008400000CB
:1006000009400000194000001C4000001740000095
:100610002A4000002D4000002F4000003140000023
:10062000F5400000C0400000C6400000E940000066
:10063000D0400000F2400000F3400000F440000011
:10064000F7400000F8400000F940000018340000B6
:10065000B8100000C8000020A82D000038270000B6
:10066000C8200000581A0000E8130000780D0000B0
:10067000364000007F0000000F0000000001000075
:1006800030030000010000000000001F0000000017
:100690000051055105000000030000002100410049
:1006A000030901E7E7E6E6E70603000000000000B3
:1006B00003000000AA000000AA00000008000000DB
:1006C0000100000000000000010000000000000028
:1006D0001000000001000000000000007F0000008A
:1006E00000000000000000001100000000000000F9
:1006F000000000007F030000010000000100000076
:1007000000000000030000000000100000000000D6
:1007100000000000000000000000000000000000D9
:100720000000000000000000008000000000155ADA
:1007300000002AB500F697CA0000155A0F8912CD9D
:100740000000155A00002AB500F697CA0000155A95
:100750000F8912CD0079BFFA0F0C800C00F331C75E
:100760000079BFFA0F8C31E00079BFFA0F0C800CD2
:1007700000F331C70079BFFA0F8C31E00080000030
:100780000000155A00002AB500F697CA0000155A55
:100790000F8912CD0000155A00002AB500F697CA3D
:1007A0000000155A0F8912CD0079BFFA0F0C800C8A
:1007B00000F331C70079BFFA0F8C31E00079BFFA3E
:1007C0000F0C800C00F331C70079BFFA0F8C31E0B9
:1007D00000FF64C100FF64C1004000000F80000002
:1007E0000040000000E719100F96AF8F007729092D
:1007F0000F17DF5500711FCD0000004C00000037BF
:100800000000000101C62940000CCCCD050000000D
:10081000002AAAAB005555550000000000800000DA
:1008200000800000008000000080000000800000C8
:1008300000800000008000000080000000800000B8
:1008400000800000008000000080000000800000A8
:100850000080000000800000008000000080000098
:1008600000800000007FF518007EB286007A7AA82A
:100870000072D94000685BC2005C3BB2004FB9CC4B
:100880000043D1C200392CE500301B7100287A27C3
:1008900000220EAA001CA7D700181C57001449619B
:1008A000001111AF00005D03000005830000002768
:1008B00000800000000000000000000000000000B8
:1008C0000000000000000000000000000000000028
:1008D000004000000F8000000080000000CADDC85A
:1008E000011E8E6A00CADDC8008000000000000002
:1008F000007FDB570F004953007FDB5700FFB6A393
:100900000F8049480032F52D0032F52D00E6608455
:100910000F9748310076BC1A0F1886BE0070E2F8B7
:1009200000800000008000000080000000800000C7
:1009300000800000008000000080000000800000B7
:1009400000800000008000000080000000800000A7
:1009500000800000007FCC9F007E1D7F0079DAC4FC
:100960000072C6AB00694A59005E334E005284B62D
:1009700000470D57003C67A80032F46B002AE026C0
:1009800000241347001E5A8400198A1300157D1B8A
:100990000012149A000F367C000CCCCD000AC5154D
:1009A00000090FCC00079FDE00002E7900000844EC
:1009B0000000005C0080000000000000000000005B
:1009C0000000000000000000000000000000000027
:1009D00000000000000000000000000000F989474E
:1009E0000F864DF50008B4DB0FF0547600071F7337
:1009F0000500000005000000007E2CDB0F019020A8
:100A0000008045660F818DBF00FE6FE0007DEEBD6A
:100A10000F02157C008000000F82114300FDEA8464
:100A2000007DD9730F02682E007FD3BA0F8252D394
:100A300000FD97D2007C8FD40F03D3B1007FD77F06
:100A40000F8398AD00FC2C4F00373B720F72CB3EEA
:100A5000008359450FC56B49008D34C20054FFDD3A
:100A60000F34AB280083F3080FA70D1C00CB54D81C
:100A7000001732030FBED1F90084D2B20FE3FB4B53
:100A800000412E07002F8E27007715AE0087636B7D
:100A90000FC90E6E0F88EA52000000C2000000F578
:100AA000000000BF0000000800800000008000007F
:100AB000000002020000040400FD2675000002028E
:100AC0000F82D183000002020000040400FD26759D
:100AD000000002020F82D183007E953D0F02D58770
:100AE00000FD2675007E953D0F82D183007E953DE9
:100AF0000F02D58700FD2675007E953D0F82D183BC
:100B00000001CB250003964A00D1B5430001CB2557
:100B10000FA71E2A0001CB250003964A00D1B5433A
:100B20000001CB250FA71E2A006AA5C60F2AB474A0
:100B300000D1B543006AA5C60FA71E2A006AA5C644
:100B40000F2AB47400D1B543006AA5C60FA71E2AA8
:100B50000080000000800000000002020000040489
:100B600000FD2675000002020F82D1830000020200
:100B70000000040400FD2675000002020F82D183EC
:100B8000007E953D0F02D58700FD2675007E953DC0
:100B90000F82D183007E953D0F02D58700FD26751B
:100BA000007E953D0F82D1830001CB250003964A3C
:100BB00000D1B5430001CB250FA71E2A0001CB258C
:100BC0000003964A00D1B5430001CB250FA71E2A8A
:100BD000006AA5C60F2AB47400D1B543006AA5C641
:100BE0000FA71E2A006AA5C60F2AB47400D1B54308
:100BF000006AA5C60FA71E2A008000000080000022
:100C000000800000008000000080000000800000E4
:100C100000800000008000000080000000800000D4
:100C200000800000008000000080000000800000C4
:100C3000007FFD62007F3D61007C2F5B0076074AEC
:100C4000006CE6AF006182980054DBF700481EB6E6
:100C5000003C15C9003147030027F5C90020315079
:100C60000019E3910014D1B90010BE07000D76B849
:100C7000000AD3C40008B4FC0007007E0005A17A76
:100C800000002E79000005830000004500FF64C1CC
:100C900000800000000000000000000000000000D4
:100CA0000000000000000000000000000000000044
:100CB00000000000002BE84F002BE84F0030DDA8BB
:100CC0000036625A003C869500435C5C004AF7BDE2
:100CD00000536F02005CDB0C006757790073030C54
:100CE000007FD388008000000080000000800000AA
:100CF00000800000008000000080000000800000F4
:100D000000800000008000000080000000800000E3
:100D100000800000008000000080000000800000D3
:100D200000800000008000000080000000800000C3
:100D30000080000000800000008000000000111D05
:100D4000000014B500800000000000000000001446
:100D50000000000000000000008000000080000093
:100D60000080000002CFCC0102CFCC0100000000C7
:100D700000800000000000000000100000000000E3
:100D80000000000000000000000000000000000063
:100D90000000000000000000008000000000113E84
:100DA0000000227C00F78FC20000113E0F882B4606
:100DB0000000113E0000227C00F78FC20000113EAF
:100DC0000F882B46007BD91F0F084DC200F78FC23A
:100DD000007BD91F0F882B46007BD91F0F084DC2FF
:100DE00000F78FC2007BD91F0F882B4600800000C0
:100DF0000000113E0000227C00F78FC20000113E6F
:100E00000F882B460000113E0000227C00F78FC2A5
:100E10000000113E0F882B46007BD91F0F084DC2E2
:100E200000F78FC2007BD91F0F882B46007BD91F8C
:100E30000F084DC200F78FC2007BD91F0F882B46C9
:100E400000F6B92300F6B923004000000F8000002F
:100E50000040000000D8604B0FA243A900722E642E
:100E60000F2522400069107E0000004C0000003772
:100E70000000000100E39EA9000CCCCD050000009D
:100E8000002AAAAB00555555000000000080000064
:100E90000080000000800000008000000080000052
:100EA0000080000000800000008000000080000042
:100EB0000080000000800000008000000080000032
:100EC0000080000000800000008000000080000022
:100ED000007FF1F9007CD8CB0072E00D00636E0852
:100EE00000525BAC0042913800358827002B0C89FA
:100EF00000229E71001BD6F300166351001200FB06
:100F0000000E7A6D000BA49E00095CF00007878E2E
:100F100000060E180005F04A00000ADA0000002B57
:100F20000080000000000000000000000000000041
:100F300000000000000000000000000000000000B1
:100F4000004000000F8000000080000000CADDC8E3
:100F50000080000000800000000000000080000011
:100F6000007EB4400F029780007EB44000FD6535DE
:100F70000F8294350032F52D0032F52D00E66084A5
:100F80000F9748310076BC1A0F1886BE0070E2F841
:100F90000080000000800000008000000080000051
:100FA0000080000000800000008000000080000041
:100FB00000800000007FE920007D80D8007636E3C5
:100FC000006A66F4005C2DF9004DBDA10040AA2026
:100FD0000035AD64002C8E920024FC76001EB3AA6E
:100FE00000197C37001527AD00118F7E000E93A8E5
:100FF000000C199B000A0B49000856650006EBBD62
:101000000005BEB30004C4CF0003F56100034932FC
:101010000002BA44000243A000005D030000037216
:1010200000000158008000000000000000000000E7
:1010300000000000000000000000000000000000B0
:1010400000000000000000000000000000F98947D7
:101050000F864DF50008B4DB0FF0547600071F73C0
:101060000500000005000000007E2E6C0F01A6DCCC
:10107000008030120F81A18200FE5924007E25825B
:101080000F01D62D00800AEC0F81CF9200FE29D3EC
:10109000007AB5C70F05358B00802EC10F851B78F0
:1010A00000FACA75007E92D60F020B01007F9D9850
:1010B0000F81CF9200FDF4FF0056C7760F24A76F73
:1010C000008BFBAD0F9D3CDD00DB58910FE3FDADC8
:1010D0000F76936000C77C890FD485CA00896CA005
:1010E0000FFC2C530F8C901D00B3B5C80FD01DE51D
:1010F00000736FE30FE7F5A6007715AE00CEFBECAB
:101100000FC90E6E0F88EA52000000C2000000F501
:10111000000000BF00000008008000000080000008
:1011200000000EB000001D6000F8389F00000EB0F7
:101130000F878CA000000EB000001D6000F8389FE3
:1011400000000EB00F878CA0007C2B000F07AA01B7
:1011500000F8389F007C2B000F878CA0007C2B00B0
:101160000F07AA0100F8389F007C2B000F878CA086
:101170000006C43B000D887500A055950006C43BD1
:101180000FC499800006C43B000D887500A05595DA
:101190000006C43B0FC499800056EF050F5221F69C
:1011A00000A055950056EF050FC499800056EF0535
:1011B0000F5221F600A055950056EF050FC49980F7
:1011C000008000000080000000000EB000001D60E4
:1011D00000F8389F00000EB00F878CA000000EB002
:1011E00000001D6000F8389F00000EB00F878CA033
:1011F000007C2B000F07AA0100F8389F007C2B0011
:101200000F878CA0007C2B000F07AA0100F8389FE5
:10121000007C2B000F878CA00006C43B000D887556
:1012200000A055950006C43B0FC499800006C43B3E
:10123000000D887500A055950006C43B0FC4998029
:101240000056EF050F5221F600A055950056EF0508
:101250000FC499800056EF050F5221F600A0559556
:101260000056EF050FC49980008000000080000048
:10127000008000000080000000800000008000006E
:10128000008000000080000000800000007FF45813
:10129000007CEF420072FD6F0063818C005261F3AD
:1012A0000042914000358826002B0C8A00229E7156
:1012B000001BD6F300166351001200FB000E7A6D7E
:1012C000000BA49E00095CF00007878E00060E1834
:1012D0000004DE8C0003EA71000326230002884725
:1012E000000209540001A33D0001512400010F1F19
:1012F00000001EF9000008440000005600FF64C111
:1013000000000000000000000000000000000000DD
:1013100000000000000000000000000000000000CD
:101320000000000000221C3D00221C3D0026EEDAD9
:10133000002C70040032B86D0039E43F0042139F66
:10134000004B6B3C00561502006240BC007024F458
:10135000007FC49B00800058008000B1008001061F
:101360000080015E008001B60080020F00800264F0
:10137000008002BC0076DB5B006DB6B700654621DD
:10138000005D7BC000564ACB004FA773004629F191
:101390000034CD860027BCD0001DE7B3001681695C
:1013A0000010EFD6000CBEFF0009979E0000111D33
:1013B0000000877100800000000000000000006352
:1013C000000000000000000000A1247800A12478A3
:1013D00000A12478038A2BAD038A2BAD0000000006
:1013E000008000000000000000001000000000006D
:1013F00000000000000000000000000000000000ED
:101400000000000000000000008000000000590201
:101410000000B20500EC72D3000059020F9229249B
:10142000000059020000B20500EC72D3000059021E
:101430000F9229240076926C0F12DB2900EC72D3F4
:101440000076926C0F9229240076926C0F12DB29A1
:1014500000EC72D30076926C0F9229240080000079
:10146000000059020000B20500EC72D300005902DE
:101470000F922924000059020000B20500EC72D33B
:10148000000059020F9229240076926C0F12DB297A
:1014900000EC72D30076926C0F9229240076926C45
:1014A0000F12DB2900EC72D30076926C0F92292484
:1014B0000111A8BE0111A8BE004000000F8000006D
:1014C0000040000000D8604B0FA243A900722E64B8
:1014D0000F2522400069107E0000004C00000037FC
:1014E0000000000101C62940000CCCCD0500000021
:1014F000002AAAAB005555550000000000800000EE
:1015000000800000008000000080000000800000DB
:1015100000800000008000000080000000800000CB
:1015200000800000008000000080000000800000BB
:101530000080000000800000007FFFBA007F8BC5A4
:10154000007D4C74007872810070F5D400674E8A7B
:10155000005C5CDA0051057900460370003BDF4314
:101560000032ED3B002B48460024C910001F438386
:10157000001A92250016951B0013315400104FD00D
:10158000000DDD000005F04A0000002C0000002BDB
:1015900000800000000000000000000000000000CB
:1015A000000000000000000000000000000000003B
:1015B000004000000F8000000080000000E39EA9B2
:1015C000008F9E4D008000000080000000000000A1
:1015D000007FDB570F004953007FDB5700FFB6A3A6
:1015E0000F8049480032F52D0032F52D00E6608469
:1015F0000F9748310076BC1A0F1886BE0070E2F8CB
:1016000000800000008000000080000000800000DA
:1016100000800000008000000080000000800000CA
:10162000008000000080000000800000007FF37B4D
:10163000007F43A9007D2CE200793BA6007355D4BE
:10164000006BB0100062AA3E0058C17A004E92AC06
:1016500000449378003B20AD00327A91002AC632D4
:10166000002411D3001E5A8400198A1300157D1B13
:101670000012149A000F367C000CCCCD000AC51560
:1016800000090FCC00079FDE00001EF9000008448F
:101690000000005C0080000000000000000000006E
:1016A000000000000000000000000000000000003A
:1016B00000000000000000000000000000F9894761
:1016C0000F864DF50008B4DB0FF0547600071F734A
:1016D0000500000005000000007F14B00F00E96B5A
:1016E000008002B60F80E89B00FF1695007ECC05B7
:1016F0000F010AC200802A480F8109B300FEF53E9F
:10170000007D0B000F027980008081720F82738E42
:1017100000FD8680007C462D0F03202F0080A31A39
:101720000F8316B900FCDFD1004AA3720F3BC54DF1
:10173000008A50040FAB0C8A00C43AB3001BAE2AD7
:101740000F7759C30098E1300FCB70A70088A63DF2
:10175000000765320FBED1F900949F830FE3FB4B66
:1017600000412E070FD72CC10FED7CE100A80A3CE9
:101770000000C9040012831F000000C2000000F531
:10178000000000BF00000008008000000080000092
:101790000000025D000004B900FCE8670000025D83
:1017A0000F830E260000025D000004B900FCE8670C
:1017B0000000025D0F830E26007E76900F0312E07C
:1017C00000FCE867007E76900F830E26007E769000
:1017D0000F0312E000FCE867007E76900F830E2670
:1017E0000006ECDD000DD9BA009F15E70006ECDD20
:1017F0000FC536A40006ECDD000DD9BA009F15E731
:101800000006ECDD0FC536A4005677D10F53105EED
:10181000009F15E7005677D10FC536A4005677D143
:101820000F53105E009F15E7005677D10FC536A401
:1018300000800000008000000000025D000004B98C
:1018400000FCE8670000025D0F830E260000025DC9
:10185000000004B900FCE8670000025D0F830E265B
:10186000007E76900F0312E000FCE867007E769021
:101870000F830E26007E76900F0312E000FCE867CF
:10188000007E76900F830E260006ECDD000DD9BA9F
:10189000009F15E70006ECDD0FC536A40006ECDD61
:1018A000000DD9BA009F15E70006ECDD0FC536A480
:1018B000005677D10F53105E009F15E7005677D181
:1018C0000FC536A4005677D10F53105E009F15E761
:1018D000005677D10FC536A40080000000800000BC
:1018E00000800000008000000080000000800000F8
:1018F00000800000008000000080000000800000E8
:1019000000800000008000000080000000800000D7
:10191000007FFD62007F3D61007C2F5B0076074AFF
:10192000006CE6AF006182980054DBF700481EB6F9
:10193000003C15C9003147030027F5C9002031508C
:101940000019E3910014D1B90010BE07000D76B85C
:10195000000AD3C40008B4FC0007007E0005A17A89
:1019600000005D03000002C10000004500FF64C1EB
:1019700000800000000000000000000000000000E7
:101980000000000000000000000000000000000057
:1019900000000000001108F4001108F400143FE4F6
:1019A0000018121F001C9CF40022033700286E51FF
:1019B00000300F7B003921380043E9160050B9C5CB
:1019C000005FF5820072112D007EF164007BD2DE93
:1019D0000078C7FA0075D03A0072EB220070184305
:1019E00000653B4E00596D27004EFF6C0045C9094C
:1019F000003DA5AD00367545002CFF650022D2B92B
:101A0000001AF3000014DB0E001023D5000C7D93A8
:101A10000009AA9100077B090005CA060000111DF4
:101A2000000014B50080000000000000000000630A
:101A3000000000000000000000B4CE0800B4CE0892
:101A400000B4CE08038A2BAD038A2BAD0000000042
:101A500000800000000000000000100000000000F6
:101A60000000000000000000000000000000000076
:101A70000000000000000000008000000000113E97
:101A80000000227C00F78FC20000113E0F882B4619
:101A90000000113E0000227C00F78FC20000113EC2
:101AA0000F882B46007BD91F0F084DC200F78FC24D
:101AB000007BD91F0F882B46007BD91F0F084DC212
:101AC00000F78FC2007BD91F0F882B4600800000D3
:101AD0000000113E0000227C00F78FC20000113E82
:101AE0000F882B460000113E0000227C00F78FC2B9
:101AF0000000113E0F882B46007BD91F0F084DC2F6
:101B000000F78FC2007BD91F0F882B46007BD91F9F
:101B10000F084DC200F78FC2007BD91F0F882B46DC
:101B200000F6B92300F6B923004000000F80000042
:101B30000040000000D8604B0FA243A900722E6441
:101B40000F2522400069107E0000004C0000003785
:101B50000000000100E39EA9000CCCCD05000000B0
:101B6000002AAAAB00555555000000000080000077
:101B70000080000000800000008000000080000065
:101B80000080000000800000008000000080000055
:101B90000080000000800000008000000080000045
:101BA0000080000000800000008000000080000035
:101BB000007FF1F9007CD8CB0072E00D00636E0865
:101BC00000525BAC0042913800358827002B0C890D
:101BD00000229E71001BD6F300166351001200FB19
:101BE000000E7A6D000BA49E00095CF00007878E42
:101BF00000060E180005F04A00000ADA0000002B6B
:101C00000080000000000000000000000000000054
:101C100000000000000000000000000000000000C4
:101C2000004000000F8000000080000000CADDC8F6
:101C30000080000000800000008000000000000024
:101C4000007F9C1D0F00C7C6007F9C1D00FF37EE64
:101C50000F80C77A0032F52D0032F52D00E6608442
:101C60000F9748310076BC1A0F1886BE0070E2F854
:101C70000080000000800000008000000080000064
:101C80000080000000800000008000000080000054
:101C9000008000000080000000800000007FED83D5
:101CA000007E522D007957310070BD64006550BF31
:101CB00000589850004BE0CB0040248A0035FA27AA
:101CC000002D6A8600263680002026F3001B0D7B3F
:101CD0000016C311001326DD00101D3F000D8EF607
:101CE000000B687300099941000813850006CB9A20
:101CF0000005B7B10004CF8B00001EF900000844B6
:101D000000000086008000000000000000000000CD
:101D100000000000000000000000000000000000C3
:101D200000000000000000000000000000F98947EA
:101D30000F864DF50008B4DB0FF0547600071F73D3
:101D40000500000005000000007E87540F00EA43F4
:101D5000008090110F80E89B00FF15BD007D1D20C5
:101D60000F01D62D0081134E0F81CF9200FE29D393
:101D7000007B88610F0341850081405D0F833742FE
:101D800000FCBE7B007B950A0F06673A007FA50D1D
:101D90000F84C5E800F998C60058BB420F2924D02B
:101DA0000087271E0FA01D9F00D6DB3000070B62A7
:101DB0000F76936000A46ED40FD485CA00896CA0FE
:101DC0000FEE93CB0F8C901D00C14E500FD01DE530
:101DD00000736FE30FE7F5A6007715AE00CEFBECBE
:101DE0000FC90E6E0F88EA52000000C2000000F515
:101DF000000000BF0000000800800000008000001C
:101E00000000038A0000071500FC35820000038AE9
:101E10000F83BC540000038A0000071500FC3582C4
:101E20000000038A0F83BC54007E1E4B0F03C3695E
:101E300000FC3582007E1E4B0F83BC54007E1E4B7F
:101E40000F03C36900FC3582007E1E4B0F83BC5418
:101E50000006C43B000D887500A055950006C43BE4
:101E60000FC499800006C43B000D887500A05595ED
:101E70000006C43B0FC499800056EF050F5221F6AF
:101E800000A055950056EF050FC499800056EF0548
:101E90000F5221F600A055950056EF050FC499800A
:101EA00000800000008000000000038A0000071589
:101EB00000FC35820000038A0F83BC540000038AB3
:101EC0000000071500FC35820000038A0F83BC5414
:101ED000007E1E4B0F03C36900FC3582007E1E4B43
:101EE0000F83BC54007E1E4B0F03C36900FC358278
:101EF000007E1E4B0F83BC540006C43B000D88754A
:101F000000A055950006C43B0FC499800006C43B51
:101F1000000D887500A055950006C43B0FC499803C
:101F20000056EF050F5221F600A055950056EF051B
:101F30000FC499800056EF050F5221F600A0559569
:101F40000056EF050FC4998000800000008000005B
:101F50000080000000800000008000000080000081
:101F60000080000000800000008000000080000071
:101F700000800000007F8A9F007B396B007156FE55
:101F80000063343A00539C390044BAE60037EA5300
:101F9000002D75460024F4E0001E0B8200186D0D24
:101FA0000013DB9C001024E0000D1FF3000AAB932C
:101FB0000008ACB800070D660005BBC10004A942CB
:101FC0000003CA18000314AB0002812C000209436D
:101FD00000001EF9000008440000005600FF64C124
:101FE00000000000000000000000000000000000F1
:101FF00000000000000000000000000000000000E1
:102000000000000000221C3D00221C3D0026EEDAEC
:10201000002C70040032B86D0039E43F0042139F79
:10202000004B6B3C00561502006240BC007024F46B
:10203000007FC49B00800058008000B10080010632
:102040000080015E008001B60080020F0080026403
:10205000008002BC0076DB5B006DB6B700654621F0
:10206000005D7BC000564ACB004FA773004629F1A4
:102070000034CD860027BCD0001DE7B3001681696F
:102080000010EFD6000CBEFF0009979E0000111D46
:102090000000877100800000000000000000006365
:1020A000000000000000000000A1247800A12478B6
:1020B00000A12478023BC148023BC1480000000057
:1020C0000080000000000000000010000000000080
:1020D0000000000000000000000000000000000000
:1020E0000000000000000000008000000000113E21
:1020F0000000227C00F78FC20000113E0F882B46A3
:102100000000113E0000227C00F78FC20000113E4B
:102110000F882B46007BD91F0F084DC200F78FC2D6
:10212000007BD91F0F882B46007BD91F0F084DC29B
:1021300000F78FC2007BD91F0F882B46008000005C
:102140000000113E0000227C00F78FC20000113E0B
:102150000F882B460000113E0000227C00F78FC242
:102160000000113E0F882B46007BD91F0F084DC27F
:1021700000F78FC2007BD91F0F882B46007BD91F29
:102180000F084DC200F78FC2007BD91F0F882B4666
:1021900000F6B92300F6B923004000000F800000CC
:1021A0000040000000D8604B0FA243A900722E64CB
:1021B0000F2522400069107E0000004C000000370F
:1021C0000000000100B4CE08000CCCCD05000000DA
:1021D000002AAAAB00555555000000000080000001
:1021E00000800000008000000080000000800000EF
:1021F00000800000008000000080000000800000DF
:1022000000800000008000000080000000800000CE
:10221000008000000080000000800000007F256238
:1022200000792FD5006D07DC005D205D004CAF43C9
:10223000003DE72C0031C7E6002808540020317229
:102240000019E3910014D1B90010BE07000D76B853
:10225000000AD3C40008B4FC0007007E0005A17A80
:10226000000487330005F04A00000ADA0000002B62
:1022700000800000000000000000000000000000DE
:10228000000000000000000000000000000000004E
:10229000004000000F8000000080000000A12478B2
:1022A00000800000008000000080000000000000AE
:1022B000007F9C1D0F00C7C6007F9C1D00FF37EEEE
:1022C0000F80C77A0032F52D0032F52D00E66084CC
:1022D0000F9748310076BC1A0F1886BE0070E2F8DE
:1022E00000800000008000000080000000800000EE
:1022F00000800000008000000080000000800000DE
:10230000008000000080000000800000007FED835E
:10231000007E522D007957310070BD64006550BFBA
:1023200000589850004BE0CB0040248A0035FA2733
:10233000002D6A8600263680002026F3001B0D7BC8
:102340000016C311001326DD00101D3F000D8EF690
:10235000000B687300099941000813850006CB9AA9
:102360000005B7B10004CF8B00001EF9000008443F
:102370000000008600800000000000000000000057
:10238000000000000000000000000000000000004D
:1023900000000000000000000000000000F9894774
:1023A0000F864DF50008B4DB0FF0547600071F735D
:1023B0000500000005000000007E87540F00EA437E
:1023C000008090110F80E89B00FF15BD007CD1FFBD
:1023D0000F01D62D00815E6F0F81CF9200FE29D3B1
:1023E000007B88610F0341850081405D0F83374288
:1023F00000FCBE7B007B950A0F06673A007FA50DA7
:102400000F84C5E800F998C60058BB420F2924D0B4
:102410000087271E0FA01D9F00D6DB3000070B6230
:102420000F76936000A46ED40FD485CA00896CA087
:102430000FEE93CB0F8C901D00C14E500FD01DE5B9
:1024400000736FE30FE7F5A6007715AE00CEFBEC47
:102450000FC90E6E0F88EA52000000C2000000F59E
:10246000000000BF000000080080000000800000A5
:10247000000001CE0000039C00FD4CBF000001CE17
:102480000F82AC0A000001CE0000039C00FD4CBF8F
:10249000000001CE0F82AC0A007EA82D0F02AFA56E
:1024A00000FD4CBF007EA82D0F82AC0A007EA82D37
:1024B0000F02AFA500FD4CBF007EA82D0F82AC0A15
:1024C0000006C43B000D887500A055950006C43B6E
:1024D0000FC499800006C43B000D887500A0559577
:1024E0000006C43B0FC499800056EF050F5221F639
:1024F00000A055950056EF050FC499800056EF05D2
:102500000F5221F600A055950056EF050FC4998093
:102510000080000000800000000001CE0000039C4D
:1025200000FD4CBF000001CE0F82AC0A000001CEBE
:102530000000039C00FD4CBF000001CE0F82AC0ADE
:10254000007EA82D0F02AFA500FD4CBF007EA82D78
:102550000F82AC0A007EA82D0F02AFA500FD4CBF74
:10256000007EA82D0F82AC0A0006C43B000D8875C2
:1025700000A055950006C43B0FC499800006C43BDB
:10258000000D887500A055950006C43B0FC49980C6
:102590000056EF050F5221F600A055950056EF05A5
:1025A0000FC499800056EF050F5221F600A05595F3
:1025B0000056EF050FC499800080000000800000E5
:1025C000008000000080000000800000008000000B
:1025D00000800000008000000080000000800000FB
:1025E00000800000007FFBEA007E324700774E1B30
:1025F000006B33CC005BFD43004C46F7003DE0D25E
:102600000031C7E600280854002031720019E39019
:102610000014D1B90010BE07000D76B8000AD3C46B
:102620000008B4FC0007007E0005A17A000487338F
:102630000003A4330002EDA700025ADA0001E4CC43
:1026400000001EF9000008440000003700FF64C1CC
:10265000000000000000000000000000000000007A
:10266000000000000000000000000000000000006A
:102670000000000000221C3D00221C3D0026EEDA76
:10268000002C70040032B86D0039E43F0042139F03
:10269000004B6B3C00561502006240BC007024F4F5
:1026A000007FC49B00800058008000B100800106BC
:1026B0000080015E008001B60080020F008002648D
:1026C000008002BC0076DB5B006DB6B7006546217A
:1026D000005D7BC000564ACB004FA773004629F12E
:1026E0000034CD860027BCD0001DE7B300168169F9
:1026F0000010EFD6000CBEFF0009979E0000111DD0
:1027000000008771008000000000000000000063EE
:10271000000000000000000000A1247800A124783F
:1027200000A124780327A01A0327A01A00000000A4
:102730000080000000000000000010000000000009
:102740000000000000000000000000000000000089
:10275000000000000000000000800000000059029E
:102760000000B20500EC72D3000059020F92292438
:10277000000059020000B20500EC72D300005902BB
:102780000F9229240076926C0F12DB2900EC72D391
:102790000076926C0F9229240076926C0F12DB293E
:1027A00000EC72D30076926C0F9229240080000016
:1027B000000059020000B20500EC72D3000059027B
:1027C0000F922924000059020000B20500EC72D3D8
:1027D000000059020F9229240076926C0F12DB2917
:1027E00000EC72D30076926C0F9229240076926CE2
:1027F0000F12DB2900EC72D30076926C0F92292421
:102800000111A8BE0111A8BE004000000F80000009
:102810000040000000D8604B0FA243A900722E6454
:102820000F2522400069107E0000004C0000003798
:102830000000000101C62940000CCCCD05000000BD
:10284000002AAAAB0055555500000000008000008A
:102850000080000000800000008000000080000078
:102860000080000000800000008000000080000068
:102870000080000000800000008000000080000058
:102880000080000000800000007FFFBA007F8BC541
:10289000007D4C74007872810070F5D400674E8A18
:1028A000005C5CDA0051057900460370003BDF43B1
:1028B0000032ED3B002B48460024C910001F438323
:1028C000001A92250016951B0013315400104FD0AA
:1028D000000DDD000005F04A0000002C0000002B78
:1028E0000080000000000000000000000000000068
:1028F00000000000000000000000000000000000D8
:10290000004000000F8000000080000000E39EA94E
:10291000008F9E4D0080000000800000000000003D
:10292000007FDB570F004953007FDB5700FFB6A342
:102930000F8049480032F52D0032F52D00E6608405
:102940000F9748310076BC1A0F1886BE0070E2F867
:102950000080000000800000008000000080000077
:102960000080000000800000008000000080000067
:10297000008000000080000000800000007FF37BEA
:10298000007F43A9007D2CE200793BA6007355D45B
:10299000006BB0100062AA3E0058C17A004E92ACA3
:1029A00000449378003B20AD00327A91002AC63271
:1029B000002411D3001E5A8400198A1300157D1BB0
:1029C0000012149A000F367C000CCCCD000AC515FD
:1029D00000090FCC00079FDE00001EF9000008442C
:1029E0000000005C0080000000000000000000000B
:1029F00000000000000000000000000000000000D7
:102A000000000000000000000000000000F98947FD
:102A10000F864DF50008B4DB0FF0547600071F73E6
:102A20000500000005000000007F14B00F00E96BF6
:102A3000008002B60F80E89B00FF1695007ECC0553
:102A40000F010AC200802A480F8109B300FEF53E3B
:102A5000007D0B000F027980008081720F82738EDF
:102A600000FD8680007C462D0F03202F0080A31AD6
:102A70000F8316B900FCDFD1004AA3720F3BC54D8E
:102A8000008A50040FAB0C8A00C43AB3001BAE2A74
:102A90000F7759C30098E1300FCB70A70088A63D8F
:102AA000000765320FBED1F900949F830FE3FB4B03
:102AB00000412E070FD72CC10FED7CE100A80A3C86
:102AC0000000C9040012831F000000C2000000F5CE
:102AD000000000BF0000000800800000008000002F
:102AE0000000025D000004B900FCE8670000025D20
:102AF0000F830E260000025D000004B900FCE867A9
:102B00000000025D0F830E26007E76900F0312E018
:102B100000FCE867007E76900F830E26007E76909C
:102B20000F0312E000FCE867007E76900F830E260C
:102B30000006ECDD000DD9BA009F15E70006ECDDBC
:102B40000FC536A40006ECDD000DD9BA009F15E7CD
:102B50000006ECDD0FC536A4005677D10F53105E8A
:102B6000009F15E7005677D10FC536A4005677D1E0
:102B70000F53105E009F15E7005677D10FC536A49E
:102B800000800000008000000000025D000004B929
:102B900000FCE8670000025D0F830E260000025D66
:102BA000000004B900FCE8670000025D0F830E26F8
:102BB000007E76900F0312E000FCE867007E7690BE
:102BC0000F830E26007E76900F0312E000FCE8676C
:102BD000007E76900F830E260006ECDD000DD9BA3C
:102BE000009F15E70006ECDD0FC536A40006ECDDFE
:102BF000000DD9BA009F15E70006ECDD0FC536A41D
:102C0000005677D10F53105E009F15E7005677D11D
:102C10000FC536A4005677D10F53105E009F15E7FD
:102C2000005677D10FC536A4008000000080000058
:102C30000080000000800000008000000080000094
:102C40000080000000800000008000000080000084
:102C50000080000000800000008000000080000074
:102C6000007FFD62007F3D61007C2F5B0076074A9C
:102C7000006CE6AF006182980054DBF700481EB696
:102C8000003C15C9003147030027F5C90020315029
:102C90000019E3910014D1B90010BE07000D76B8F9
:102CA000000AD3C40008B4FC0007007E0005A17A26
:102CB00000005D03000002C10000004500FF64C188
:102CC0000080000000000000000000000000000084
:102CD00000000000000000000000000000000000F4
:102CE00000000000001108F4001108F400143FE493
:102CF0000018121F001C9CF40022033700286E519C
:102D000000300F7B003921380043E9160050B9C567
:102D1000005FF5820072112D007EF164007BD2DE2F
:102D20000078C7FA0075D03A0072EB2200701843A1
:102D300000653B4E00596D27004EFF6C0045C909E8
:102D4000003DA5AD00367545002CFF650022D2B9C7
:102D5000001AF3000014DB0E001023D5000C7D9345
:102D60000009AA9100077B090005CA060000111D91
:102D7000000014B5008000000000000000000063A7
:102D8000000000000000000000B4CE0800B4CE082F
:102D900000B4CE08038A2BAD038A2BAD00000000DF
:102DA0000080000000000000000010000000000093
:102DB0000000000000000000000000000000000013
:102DC00000000000000000000080000000000DEE88
:102DD00000001BDC00F86D6600000DEE0F875AE264
:102DE00000000DEE00001BDC00F86D6600000DEE2B
:102DF0000F875AE2007C44A10F0776BE00F86D668B
:102E0000007C44A10F875AE2007C44A10F0776BEE4
:102E100000F86D66007C44A10F875AE20080000034
:102E200000000DEE00001BDC00F86D6600000DEEEA
:102E30000F875AE200000DEE00001BDC00F86D6603
:102E400000000DEE0F875AE2007C44A10F0776BE0A
:102E500000F86D66007C44A10F875AE2007C44A113
:102E60000F0776BE00F86D66007C44A10F875AE21A
:102E700000BF84A600BF84A6004000000F800000B1
:102E80000040000000D8604B0FA243A900722E64DE
:102E90000F2522400069107E0000004C0000003722
:102EA00000000001023BC148000CCCCD0500000031
:102EB000002AAAAB00555555000000000080000014
:102EC0000080000000800000008000000080000002
:102ED00000800000008000000080000000800000F2
:102EE00000800000008000000080000000800000E2
:102EF00000800000008000000080000000800000D2
:102F000000800000007FF518007EB286007A7AA863
:102F10000072D94000685BC2005C3BB2004FB9CC84
:102F20000043D1C200392CE500301B7100287A27FC
:102F300000220EAA001CA7D700181C5700144961D4
:102F4000001111AF0005F04A0000002C0000002B1A
:102F500000800000000000000000000000000000F1
:102F60000000000000000000000000000000000061
:102F7000004000000F8000000080000000E39EA9D8
:102F8000008F9E4D008000000080000000000000C7
:102F9000007EF6530F02135A007EF65300FDEA8AB4
:102FA0000F82113D0032F52D0032F52D00E66084D0
:102FB0000F9748310076BC1A0F1886BE0070E2F8F1
:102FC0000080000000800000008000000080000001
:102FD00000800000008000000080000000800000F1
:102FE000007FEF06007F2053007CC53700786CC35C
:102FF00000720A440069E50C00606412005628184B
:10300000004BC8B10041BCF200385E5C002FE70302
:10301000002874AA00220EAA001CA7D700181C576B
:1030200000144961001111AF000E5CA1000C158065
:10303000000A2ADB00088E08000732AE00060E6C7C
:10304000000518840004499D00001EF90000084492
:103050000000005C00800000000000000000000094
:103060000000000000000000000000000000000060
:1030700000000000000000000000000000F9894787
:103080000F864DF50008B4DB0FF0547600071F7370
:103090000500000005000000007D8FF20F01902068
:1030A0000080E24F0F818DBF00FE6FE0007CC19970
:1030B0000F02157C00812D240F82114300FDEA844C
:1030C000007D02AE0F029AD7008069110F829441F1
:1030D00000FD6529007D989A0F033A25007FB27B99
:1030E0000F82B4EB00FCC5DB0024FF880F72CB3EDF
:1030F0000095952F0FC56B49008D34C2004181F3B7
:103100000F4093540090D7430FADA6CA00BF6CACDC
:10311000000095250FBED1F9009B6F900FE3FB4B8C
:1031200000412E070FFFB799007715AE00B739F9A8
:103130000FC90E6E0F88EA52000000C2000000F5B1
:10314000000000BF000000080080000000800000B8
:10315000000003A30000074600FC284E000003A364
:103160000F83C926000003A30000074600FC284E79
:10317000000003A30F83C926007E17CA0F03D06C7B
:1031800000FC284E007E17CA0F83C926007E17CA8E
:103190000F03D06C00FC284E007E17CA0F83C9268F
:1031A0000002CC830005990500C529090002CC83E3
:1031B0000FAFA4EC0002CC830005990500C52909D6
:1031C0000002CC830FAFA4EC006561070F353DF220
:1031D00000C52909006561070FAFA4EC0065610710
:1031E0000F353DF200C52909006561070FAFA4EC5A
:1031F0000080000000800000000003A300000746DC
:1032000000FC284E000003A30F83C926000003A37F
:103210000000074600FC284E000003A30F83C926C8
:10322000007E17CA0F03D06C00FC284E007E17CA20
:103230000F83C926007E17CA0F03D06C00FC284EEE
:10324000007E17CA0F83C9260002CC8300059905AA
:1032500000C529090002CC830FAFA4EC0002CC8387
:103260000005990500C529090002CC830FAFA4EC25
:10327000006561070F353DF200C52909006561074A
:103280000FAFA4EC006561070F353DF200C52909B9
:10329000006561070FAFA4EC00FF64C100FF64C1CB
:1032A000009D8DDA0061323D003BF6080024FD8B65
:1032B000001C4CD4002094BD0025826B002B2EF501
:1032C0000031B73500393C6D0041E4DB004BDC9246
:1032D00000575644006325970068753200646324E4
:1032E00000592958004B318D003D507600312CF1AA
:1032F000002756C4001F784E00192CCB001423A3BE
:1033000000101C5A000CE35A000A4F6100083F6C81
:103310000006991300054735000438ED000360B539
:1033200000005D03000002C10000004500FF64C111
:10333000008000000000000000000000000000000D
:10334000000000000000000000000000000000007D
:10335000000000000024553200245532002EBD3AF2
:10336000003C204A004D58EC00638046007FA3E2F9
:10337000007F7ED2007EFE27007E7DFD007DFE5117
:10338000007D7F2A007D0083007C825C007C04B489
:10339000007B878B007B0AE0007A8EB0007A1300F6
:1033A000007353F6006A2A830061BB670059F7CEA9
:1033B0000052D21D00496F1C0033FCC00024CDDF39
:1033C000001A0E2D0012721F000D0F0200093EABF5
:1033D00000068B790004A225000347BA0000111DE6
:1033E000000014B500800000000000000000001480
:1033F00000000000000000000080000000A1247810
:1034000000A12478038A2BAD038A2BAD00000000B5
:1034100000800000000000000000000000FEE0004E
:103420000000FF34000000FF2C000000FF540000EB
:1034300000FF5C000000FFF5082000FF38000000DE
:10344000FF8000000000000000000000000000FEFF
:10345000E80C0000FE3000E2000000000000000068
:10346000000000000000000000000000000000005C
:1034700000000000000000FFE8072008000006A090
:1034800000FFE000C000FF80070000000000000017
:10349000FF00000000FEC02200270000000000FE28
:1034A000E81E0000FFE8012000FFD801030000072C
:1034B000C60000FF08000000FFF4002000FFD8074E
:1034C0000200FDA5082000000000E200FDAD08207C
:1034D00000000800E2000000082000003000E200C8
:1034E00000580B200000500D220000400B3400005B
:1034F000380D2200003009220000280A2200002096
:103500000C2200004800E200006000F20000881079
:103510002000008012220000701034000068122287
:103520000000480E220000400F2200003811220047
:10353000007800E200001000E200009000F20000BD
:103540000508200000A800E20000D015200000C8F7
:1035500017220000B815340000B017220000A8138D
:10356000220000A0142200009816220000C000E2F1
:103570000000D800F20001001A200000F81C220010
:1035800000E81A340000E01C220000C018220000ED
:10359000B819220000B01B220000F000E200001861
:1035A00000E200010800F20000081D2000013000C8
:1035B000E200015820200001502222000140203466
:1035C00000013822220001301E220001281F2200A3
:1035D0000120212200014800E200016000F2000108
:1035E0008825200001802722000170253400016811
:1035F000272200014823220001402422000138260E
:103600002200017800E200011000E200019000F2C7
:1036100000000D08200001A800E20001D02A2000CF
:1036200001C82C220001B82A340001B02C2200016C
:10363000A828220001A029220001982B220001C005
:1036400000E20001D800F20002002F200001F83152
:10365000220001E82F340001E031220001C02D22B8
:103660000001B82E220001B030220001F000E2007B
:10367000011800E200020800F200000032200002FF
:103680001000E200000000000000083320000218D3
:1036900000E200000000000000183420000118348F
:1036A0002200022000E2000018352000022800E27B
:1036B0000001183620000228362200023000E20005
:1036C000FF803E00000225082000025000E200FEBC
:1036D000F0000000FF00000000FF403C0000FF6819
:1036E0003D0000FED33B0000000000000002380057
:1036F000E20002383F2000027000E20000000000FB
:10370000000270412000028000E2000285084000B3
:10371000FFD84404000280442000FFD84402000285
:1037200080442000028800E200028842444002886F
:1037300000E4000285082000FFED08224800000098
:103740000000FFE84340250285082040FFED0822E5
:10375000480000000000FFE8434065028800E400E4
:103760000288402000027800E200FFE86A200002A0
:10377000E000E20002E508200002E000E20002E0D2
:1037800000C000027FFF200002E800E20002E80023
:10379000C00002EFFF2000030800E200031000F267
:1037A0000002B508200002B0672240031067220023
:1037B000FFD86D020002A508340002A06722400372
:1037C00008678200FFD86C0200030867220002A885
:1037D00000E20002B800F200031800F60002D5086B
:1037E000200802D800E20002C5082000FFE8692294
:1037F0006702C800E200031D082248031D082000DC
:1038000002C800E227FFE868200002D800E2270291
:10381000DD082008FFFD08224002D800E22602CD84
:103820001A2000032000E200032800F20003200019
:10383000C00000000000000000000000000046A1E1
:1038400000FFE5082000000045A100FFE508224038
:1038500002F000E200032800C00002F7FF2000FF92
:10386000E5082200030000E200030000C000FFD8CA
:103870006F020002E507200002E000E20002E7FF1D
:103880002000030000E200030000C000FFD86E0229
:10389000000237FF2000029000E2000237FF200004
:1038A000029800E200029072200002987222000347
:1038B0003000E2000330732000033800E2000220F1
:1038C0007420000220744000033875220003307514
:1038D0004400034000E200034800E40000107620AA
:1038E000000110764000034077220003487744002F
:1038F000035000E200035800E40003507820000069
:1039000000792200037000E20003587820000008CC
:10391000792200038800E20003B07D200003A87E26
:10392000220003987D340003907E220003707A22E7
:103930000003687B220003607C220003A000E200F9
:1039400003B800F20003E07D200003D87E220003CC
:10395000C87D340003C07E220003887A22000380E1
:103960007B220003787C220003D000E20003E80001
:10397000F20003A07F2000040000E200000000002D
:103980000003D0802000041800E2000000000000C6
:1039900004288120000420822200040083220003E6
:1039A000F884220003F0852200043000E200044085
:1039B000812000043882220004188322000410842D
:1039C00022000408852200044800E200FFE8AB2042
:1039D00000049000E2000495092000049000E20039
:1039E000049000C0000437FF2000049800E20004A7
:1039F0009800C000049FFF200004B800E20004C04B
:103A000000F20004650820000460A8224004C0A859
:103A10002200FFD8AE020004550834000450A8224A
:103A20004004B8A88200FFD8AD020004B8A8220064
:103A3000045800E200046800F20004C800F6000424
:103A400085082008048800E2000475082000FFE8CB
:103A5000AA2267047800E20004CD08224804CD08B9
:103A60002000047800E227FFE8A92000048800E293
:103A700027048D082008FFFD082240048800E22664
:103A8000047D1A200004D000E20004D800F20004F3
:103A9000D000C00000000000000000000000000096
:103AA00087A100FFE5082000000086A100FFE508CF
:103AB000224004A000E20004D800C00004A7FF20B8
:103AC00000FFE508220004B000E20004B000C000DE
:103AD000FFD8B002000495072000049000E2000423
:103AE00097FF200004B000E200FFE8AB20000520B3
:103AF00000E2000525092000052000E20005200065
:103B0000C000044FFF2000052800E200052800C087
:103B100000052FFF2000054800E200055000F200DC
:103B200004F508200004F0A822400550A82200FF58
:103B3000D8B2020004E508340004E0A82240054899
:103B4000A88200FFD8B102000548A8220004E800BE
:103B5000E20004F800F200055800F6000515082000
:103B600008051800E2000505082000FFE8AA226702
:103B7000050800E200055D082248055D08200005F3
:103B80000800E227FFE8A92000051800E227051D2C
:103B9000082008FFFD082240051800E226050D1A3E
:103BA0002000056000E200056800F200056000C02A
:103BB0000000000000000000000000000087A100DD
:103BC000FFE5082000000086A100FFE5082240056F
:103BD0003000E200056800C0000537FF2000FFE567
:103BE000082200054000E200054000C000FFD8B4F4
:103BF00002000525072000052000E2000527FF2020
:103C000000054000E20004B50840000545082448CE
:103C10000545082000057000E215FFE8AC4000FFF4
:103C2000ED082008000000000004B508200005751C
:103C300008202304B000E20004B000C0000437FFF5
:103C40002000058800E200FFEFFF2000FFD8AF0250
:103C50000005450820000575082023054000E20006
:103C6000054000C000044FFF200005A000E200FF57
:103C7000EFFF2000FFD8B3020005B0B5200005A873
:103C8000B622000588B722000580B822000578B961
:103C9000220005B800E20005C8B5200005C0B62224
:103CA0000005A0B722000598B822000590B92200AF
:103CB00005D000E20005B8BA200005D800E20000F7
:103CC0000000000005D0BB200005E000E20000007D
:103CD000000000FF80E7000005DD08200006080066
:103CE000E20005E508200007A000E200FEF0000069
:103CF00000FF00000000FF40E40000FF68E6000055
:103D0000FED3480000000000000005E800E200FFCC
:103D100040E50000FF68E60000FED3480000000018
:103D200000000005F000E20005E8E820000950006E
:103D3000E2000960EC20000958EE22000950EA2256
:103D4000000948EB22000940ED2200096800E2006A
:103D50000978F120000970F322000968EF220009B8
:103D600060F022000958F22200098000E2000928D0
:103D700000E20005ED082000099800E20009A8F61D
:103D8000200009A0F822000998F422000990F522E9
:103D9000000988F7220009B000E20009C0FB2000FA
:103DA00009B8FD220009B0F9220009A8FA22000989
:103DB000A0FC220009C800E20009D900200009D1B6
:103DC00002220009C8FE220009C0FF220009B90131
:103DD000220009E000E20009F105200009E90722BC
:103DE0000009E103220009D904220009D1062200BA
:103DF00009F800E200093000E20005E8E920000AC5
:103E00001000E2000A210A20000A190C22000A11FF
:103E10000822000A090922000A010B22000A2800D0
:103E2000E2000A390F20000A311122000A290D226E
:103E3000000A210E22000A191022000A4000E200A6
:103E4000093800E20005F11220000A7000E2000AC1
:103E5000811620000A791822000A711422000A69CA
:103E60001522000A611722000A8800E2000A991B45
:103E700020000A911D22000A891922000A811A22B3
:103E8000000A791C22000AA000E2000A4800E200B1
:103E900005F50820000AB800E2000AC92020000A3F
:103EA000C12222000AB91E22000AB11F22000AA95B
:103EB0002122000AD000E2000AE12520000AD927C9
:103EC00022000AD12322000AC92422000AC1262284
:103ED000000AE800E2000AF92A20000AF12C220078
:103EE0000AE92822000AE12922000AD92B22000B24
:103EF0000000E2000B112F20000B093122000B0102
:103F00002D22000AF92E22000AF13022000B18009F
:103F1000E2000A5000E20005F11320000B3000E23D
:103F2000000B413420000B393622000B31322200C5
:103F30000B293322000B213522000B4800E2000B35
:103F4000593920000B513B22000B493722000B410D
:103F50003822000B393A22000B6000E2000A5800B8
:103F6000E200FFE96120000BB800E2000BBD092070
:103F7000000BB800E2000BB800C000092FFF2000C2
:103F80000BC000E2000BC000C0000BC7FF20000BFD
:103F9000E000E2000BE800F2000B8D0820000B8926
:103FA0005E22400BE95E2200FFD96402000B7D080F
:103FB00034000B795E22400BE15E8200FFD9630280
:103FC000000BE15E22000B8000E2000B9000F2008B
:103FD0000BF000F6000BAD0820080BB000E2000B60
:103FE0009D082000FFE96022670BA000E2000BF5AE
:103FF0000822480BF50820000BA000E227FFE95F2C
:1040000020000BB000E2270BB5082008FFFD0822B6
:10401000400BB000E2260BA51A20000BF800E200CE
:104020000C0000F2000BF800C000000000000000CF
:104030000000000000013DA100FFE5082000000194
:104040003CA100FFE50822400BC800E2000C000084
:10405000C0000BCFFF2000FFE50822000BD800E2D4
:10406000000BD800C000FFD96602000BBD0720007E
:104070000BB800E2000BBFFF20000BD800E200FFEE
:10408000E96120000C4800E2000C4D0920000C48BA
:1040900000E2000C4800C0000A4FFF20000C500056
:1040A000E2000C5000C0000C57FF20000C7000E232
:1040B000000C7800F2000C1D0820000C195E224054
:1040C0000C795E2200FFD96802000C0D0834000C48
:1040D000095E22400C715E8200FFD96702000C71FC
:1040E0005E22000C1000E2000C2000F2000C8000A8
:1040F000F6000C3D0820080C4000E2000C2D0820C2
:1041000000FFE96022670C3000E2000C85082248BD
:104110000C850820000C3000E227FFE95F20000C2E
:104120004000E2270C45082008FFFD0822400C4013
:1041300000E2260C351A20000C8800E2000C9000EA
:10414000F2000C8800C00000000000000000000029
:104150000000013DA100FFE508200000013CA10096
:10416000FFE50822400C5800E2000C9000C0000C53
:104170005FFF2000FFE50822000C6800E2000C68E9
:1041800000C000FFD96A02000C4D0720000C480057
:10419000E2000C4FFF20000C6800E2000BDD08403D
:1041A000000C6D0824480C6D0820000C9800E215E6
:1041B000FFE9624000FFED08200800000000000B4E
:1041C000DD0820000C9D0820230BD800E2000BD84E
:1041D00000C000092FFF20000B6800E200FFEFFF86
:1041E0002000FFD96502000C6D0820000C9D0820FE
:1041F000230C6800E2000C6800C0000A4FFF20009A
:104200000B7000E200FFEFFF2000FFD969020009F8
:104210003D0920000A5D0922000D3000E2000D304A
:1042200000C0000D37FF20000D4800E2000D5000D7
:10423000F2000CD50820000CD18D22400D518D22AA
:10424000000CC50834000CC18D22400D498D2200A0
:10425000FFD99202000CC800E2000CD800F2000D59
:10426000050820000D018E22400D518E22000CF514
:104270000834000CF18E22400D498E82000D498ECB
:1042800022000CF800E2000D0800F2000D5800F6C4
:10429000000D250820080D2800E2000D150820005B
:1042A000FFE99122670D1800E2000D5D0822480D1C
:1042B0005D0820000D1800E227FFE99020000D287E
:1042C00000E2270D2D082008FFFD0822400D2800E0
:1042D000E2260D1D1A20000D6000E2000D6800F2BC
:1042E000000D6000C00000000000000000000000A1
:1042F00000016CA100FFE508200000016BA100FF98
:10430000E50822400D3800E2000D6800C0000D3FB6
:10431000FF2000FFE50822000D4000E2000D4000F4
:10432000C000093FFF2000028800E2000CE000E22C
:104330000002898F2000028800E20002898F20009D
:104340000CA000E2000A5FFF2000028800E2000CDF
:10435000E800E20002898F2000028800E200028962
:104360008F20000CA800E200FFEFFF20000CB80037
:10437000E2000CE50920000CED0922000D3000E2FE
:10438000000D3000C0000D37FF20000D4800E20096
:104390000D5000F2000CBD0820000CB000E200FF40
:1043A000D99302000B699420000B719440000931ED
:1043B0009522000A519544000CA19622000CA99662
:1043C00044000D7000E2000D7800E4000D719720AC
:1043D000000D8000E20000000000000D7998200030
:1043E0000D8800E200000000000002119920000D7D
:1043F000819A220003719B22000D9000E2000219B5
:104400009920000D899A220003899B22000D9800B3
:10441000E2000D95082000FDB000E2000D9D08208F
:1044200000FDB800E2000000000000FE30000000C7
:104430000000000000FEC00F00000000000000FEB1
:10444000580000000007CB0000FEEB430000FE27F1
:10445000C62000FE27C62200FE27C62200FE27C671
:104460002200FE57C62200FE3800E200FEF80000DF
:1044700000FF08000000FED800000000000000005F
:10448000FE580000000007CB0000FEEB530000FECA
:1044900037C62000FE0FC12200FE37C63400FE37AB
:1044A000C62200FE4FC62200FE37C62200FE1FC9EC
:1044B0002200FE4000F200FE3000E200FEF80000A4
:1044C00000FF08000000FED800000000000000000F
:1044D00000B583B04D48006801904D4800680090D9
:1044E00000984C49014000914848019901604848B2
:1044F000009901604A480068002804D0009901989A
:10450000474A1268904707BD00B583B0424800682B
:1045100001904248006800903F48019901603F487F
:10452000009901603F480068002804D00099019874
:104530003C4A1268904707BD80B535488021C901C3
:10454000016039480068002802D037480068804779
:1045500001BD80B52E488021090201603348006802
:10456000002802D031480068804701BD78B50300BB
:10457000002901D4112901DB2D4845E0DBB24020A0
:1045800058432C4C00190090D2B2002A05D0D2B268
:10459000012A02D0D2B2022A25D100980068032451
:1045A0000D0002267543AC40A043009C2060D2B2AF
:1045B000012A0AD10098006801240D0002267543E3
:1045C000AC400443009804601DE0D2B2022A1AD124
:1045D0000098006802240D0002267543AC40044395
:1045E000009804600FE0D2B2032A0AD10098006854
:1045F00003240D0002267543AC4004430098046078
:1046000001E00B4800E0002072BD00002040005097
:1046100060400050FF3FFFFFA0400050E0400050CE
:104620006C00002070000020740000207800002042
:104630000189FFFF0040005010B50100C9B20029F8
:1046400033D002294CD03DD3042949D048D3062980
:1046500046D045D3082900D1A2E041D30A2900D190
:10466000B9E000D2A9E00C2900D1D0E000D2C0E02E
:104670000E2900D1E7E000D2D7E0102900D1F2E006
:1046800000D2E8E0122900D109E100D2F9E01429B2
:1046900000D104E100D21DE1162900D11AE100D2B7
:1046A000FDE0172900D115E145E1A548002303608D
:1046B000A44800230360A44800230360A348002308
:1046C00003603AE19E480068C0231B0103439C48F5
:1046D00003609F4800689F4B03409D4803602CE1A6
:1046E000C9B2022905D3C9B2052902D200200200AD
:1046F00001E004200200C9B2022902D0C9B2052992
:1047000017D1904800680F23934003438D480360FE
:10471000C9B2022906D18E4800688E4B03408C48EE
:1047200003603CE08A4800688B4B03408848036084
:1047300035E0C9B2032902D0C9B2062910D1814897
:1047400000680323934003437E480360C9B20629EF
:1047500025D17F480068814B03407D4803601EE0FF
:10476000C9B2042902D0C9B2072918D17548036813
:1047700003241000801C84401C4372480460C9B2AA
:10478000042906D172480068724B034070480360E8
:1047900005E06F480068724B03406D480360CCE051
:1047A000694800680F23034367480360684800684E
:1047B0006C4B034066480360BFE06248006880239A
:1047C000DB0003435F480360614800680123034343
:1047D0005F480360B1E05C480068F0231B010343BD
:1047E000594803605A4800685F4B034058480360CB
:1047F000A3E05448006880239B00034351480360B2
:1048000053480068022303435148036095E04D4834
:104810000068102303434B4803604D480068802321
:104820001B0203434A48036087E046480068802330
:10483000DB0103434348036045480068082398436D
:10484000434B186079E03F48006880231B02034314
:104850003C48036071E03B48006880235B000343F1
:104860003848036069E03748006880239B000343B1
:10487000344803603648006802239843344B18607C
:104880005BE0304800688023DB0003432D48036071
:104890002F480068012398432D4B18604DE0C9B2A2
:1048A000122907D126480068C0239B0103432448EE
:1048B000036008E0224803680124080008388440A7
:1048C0001C431F48046022480068224B03402048D4
:1048D000036032E0C9B2132913D119480068C0231C
:1048E0001B02034316480360194800681F4B03402E
:1048F0001748036016480068164B034014480360CD
:1049000018E00F48036801240800083884401C435D
:104910000B480460C9B2162906D10D4800680D4B3A
:1049200003400B48036005E0094800680F4B034053
:104930000748036001E00E4800E0002010BD0000C1
:104940003000005034000050380000503C0000504F
:1049500050000050FFF7FFFFFF7FFCFFFF7FFFFFCE
:10496000FFFFFCFF1FFEFFFFFFFFF0FFFFFDFFFF4C
:104970000189FFFF10B501000023180000231A0071
:10498000D2B20C235343A44CE3588B4207D1D2B28A
:104990000C235343A04CE3185B68180008E0521C3A
:1049A0001300DBB20C2463439B4CE358002BE7D18C
:1049B00010BD38B505000C00286864B200192860E5
:1049C0002800FFF7D7FF296888420BD22868F12812
:1049D00004D32800FFF7CEFF286001E00020286004
:1049E000002000E0012032BDF0B583B08B48050007
:1049F00000F0D5FC0830040000F0D1FC0821694328
:104A000040180600009401A92800400808225043DD
:104A1000201800F04FFC07008148874201D1042094
:104A200031E0019802280CD12800400808214843B1
:104A30002018009028004008082148430830241816
:104A400006E02800400808214843201808380600DE
:104A5000B44208D101A9200000F02CFC07007048E6
:104A6000874208D105E0A64201D204200BE06D0880
:104A7000C9E7042007E00198022800D100946948A2
:104A8000009901600120FEBDF8B500F088FC0830F7
:104A9000070000F084FC0830050000F080FC694647
:104AA000001D00F007FC06005D48864201D104208D
:104AB000B1E000985C49884221D000980021C943A8
:104AC00088421CD159480078FE21014057480170A6
:104AD000002004000C2060434F49081880680C2116
:104AE00061434D4A51580860641C200004000C21A9
:104AF0004843494908580028ECD101208BE04B4835
:104B000000780121014349480170FFF76DFF06005D
:104B1000012E48D06946280000F0CCFB0600404832
:104B2000864201D1042076E00098022808D12F00A7
:104B3000083500F034FCB5494018A842EAD2FFE736
:104B4000002004000C206043334909582000401C19
:104B500004225043381800F0ADFB0600304886426E
:104B600001D1042057E00C2060432B49081840680D
:104B70000C216143284A51580968884209D20C2007
:104B800060432549081880680C216143224A515826
:104B90000860641C200004000C2148431E4908588A
:104BA0000028CFD136E09A4801210170002004008E
:104BB0000C206043184909581A4800682200521C0A
:104BC00004235A43801800F075FB060014488642FF
:104BD00001D104201FE00C2060430F4908184068F1
:104BE0000C2161430C4A51580968884209D20C20B3
:104BF00060430949081880680C216143064A5158EE
:104C00000860641C200004000C2148430249085835
:104C10000028CDD10120F2BDE4510000FF010000C9
:104C20008188FFFFD0000020445A4640CC0000207D
:104C300070B582B00126AB480078C00711D400F0EF
:104C4000AEFBA949001D00F001FB0500A748854205
:104C500001D10420D8E0A348007801210143A148F4
:104C600001706B480078002855D000F098FB694926
:104C700009689F4A801881421DD100200400082C39
:104C800009D200F08CFB802189006143401800F0BC
:104C900047FB641CF3E700F082FB9349001D00F022
:104CA000D5FA05009148854201D10420ACE000F01E
:104CB00076FB58490860022156480068083000F029
:104CC000C5FA05008948854201D104209CE00020F6
:104CD00004000C206043B149085801684D48006841
:104CE0000422624380180C3000F0B0FA05007F48BF
:104CF000854201D1042087E0641C200004000C21BF
:104D00004843A64908580028E3D1424800680830C3
:104D10004049086077E0A2480068002804D100F00C
:104D20003EFB08309E49086069469D48006800F0D7
:104D3000C1FA05006D48854201D1042064E0009865
:104D4000022807D000980021C943884202D10020E0
:104D500006000CE09248006808309149086000F0B5
:104D60001EFB2A4940188E4909688842DCD2F6B2F7
:104D7000002E1ED000200400082C09D200F00FFBEA
:104D8000802189006143401800F0CAFA641CF3E7EF
:104D900000F005FB5449001D00F058FA0500534887
:104DA000854201D104202FE000F0F9FA08307C4957
:104DB000086002217A48006800F048FA05004B4874
:104DC000854201D104201FE0002004000C20604334
:104DD000724908580168724800682200521C042376
:104DE0005A43801800F032FA05004048854201D14C
:104DF000042009E0641C200004000C21484367499A
:104E000008580028E2D1012076BD0000F70F00000D
:104E1000E6000020D000002000B53248002181705B
:104E2000A0480068002808D0022814D00CD3042819
:104E30001FD017D3052823D029E02A4880780121E4
:104E400001432848817022E02648807802210143EE
:104E5000244881701BE023488078042101432148C5
:104E6000817014E01F488078082101431D4881703B
:104E70000DE01C488078102101431A48817006E03B
:104E8000184880782021014316488170FFE71548B3
:104E900080780100C907C90F9A48016011488078DD
:104EA00001008907C90F984801600E488078010009
:104EB0004907C90FA84801600A488078010009071E
:104EC000C90FA6480160074880780100C906C90FCC
:104ED000A34801600348807801008906C90FAD48E6
:104EE000016000BDCC000020445A46408188FFFF8D
:104EF000F80F000038B50400002564B26948006866
:104F0000844201D00120050064B2202C0AD064B292
:104F1000102C04D101216348FFF74BFD02E06148EA
:104F200064B20460EDB2002D0AD09B48C078042121
:104F300001439948C170994804210170FBF700FAB8
:104F400031BD80B5FFF7A0FDFA20800000F044F9E4
:104F50002020FFF7CFFF01BD10B591480078400633
:104F6000400E8F4908708E480078702814D28C4803
:104F70000078082148438B490818C07804008A4803
:104F800000210170200040B2854909780822514370
:104F9000844A51184968884710BD0000E451000058
:104FA000D400002010B5002000217D4AFF2313709B
:104FB000794AD278D20773D57C4A1278C9B20823CD
:104FC0004B43784CE3189B789A4202D1012210009F
:104FD00008E0491C0A00D2B208235A43714B9A5C7C
:104FE000002AE9D16C4AD278FE2313406A4AD37072
:104FF000C0B2002854D0C9B208224A43694B9A5C17
:10500000012A05D04CD3032A2AD008D3042A47D139
:10501000614AD278920701D4614A117040E05E4A39
:10502000D278920705D4624A002313705C4A11704B
:1050300015E05F4A1278002A06D05B4A12780A2AE5
:1050400002D3574A11700AE0594A1278002A06D151
:10505000554A1278322A02D3554A012313701FE0B1
:105060004D4AD278920705D4514A002313704C4A16
:10507000117015E04E4A1278002A06D04A4A12787A
:105080000A2A02D3464A11700AE0494A1278002AD5
:1050900006D1454A1278322A02D3454A01231370B9
:1050A00010BD0000C800002000B54248006800287C
:1050B00015D1414800884149884204D23E480088C1
:1050C000401C3D4908803C4800883C4988420CD33C
:1050D00031484078012101432F48417005E03648AE
:1050E000002101802C480021417000BD80B5FFF7F0
:1050F000DBFF29484078C00701D5012000E00020EF
:1051000002BD0000844200508042005010B5224889
:10511000C078C0071ED4FFF7E9FF0400E4B2002CFA
:1051200015D027480078E4B2A0420DD01A48C078C4
:10513000FD2101401848C1701748C0780121014382
:105140001548C170194804701D48047002E01C48DD
:10515000FF21017010BD0000AC420050A842005079
:10516000B442005080B50C48C078400707D50A48C3
:10517000C078FB2101400848C170FFF74DFE074889
:105180000078012804D1054800210170FFF750FD87
:1051900001BD0000B0420050CC000020E100002022
:1051A000E3000020FC510000E2000020E4000020A9
:1051B000E700002088420050D8000020102700009F
:1051C000E500002080B5FFF7A1FFFFF7EBFEFFF73A
:1051D000C3FEFFF7C7FF01BD00B5002801D0401E88
:1051E000FBE700BDC8000020060000000000000032
:1051F00000000000CD0000000000000001FF0110D1
:10520000F54E000000FFFF00F54E000000B505213F
:1052100008000100481EC9B20029FAD100BD10B42F
:105220000168001D00290FD0026882184368083009
:10523000DC0702D54C46641E1B1914681C60121D45
:105240001B1D091FF9D1EBE710BC704700B5020028
:10525000544800680F2398430123034351480360D7
:1052600050480068102398434E4B18604D48006822
:10527000202303434B4803604B4802604B480160C6
:105280004B4800680123034349480360BFF36F8F15
:1052900047480068C007FBD446480068400607D569
:1052A000444800684023034342480360424800E00A
:1052B000002000BD00B502003A4800680F23984363
:1052C000384B18603748006810239843354B1860F6
:1052D0003448006820239843324B186032480260FB
:1052E00032480023036032480068012303433048FA
:1052F0000360BFF36F8F2E480068C007FBD42D48B2
:105300000068400607D52B4800684023034329481E
:105310000360294803E0254800680860002000BDBC
:1053200000B501001F4800680F229043022202438B
:105330001C4802601B48006810229043194A106004
:10534000184800682022024316480260164801608F
:10535000174800680122024315480260BFF36F8FAF
:1053600013480068C007FBD412480068400607D500
:1053700010480068402202430E4802600E4800E0D8
:10538000002000BD0D480068042101430B48016066
:105390000848006801210143064801607047084839
:1053A000006870470CC0005004C0005008C0005096
:1053B00010C0005000C000508188FFFF0402005060
:1053C00014C000500121C206D20E9140B64A1160AD
:1053D0007047F0B503000C005BB2002B22D55BB226
:1053E0001807000F08380500AD08042045439B4A04
:1053F0005BB21807000F083880080421484397491A
:105400000858FF219E07B60F08277E43B140884306
:10541000A101C9B29E07B60F08277E43B1400143E0
:1054200051511CE05BB21800800804214843B14987
:105430000858FF219A07920F08256A439140884334
:10544000A101C9B29A07920F08256A43914001430E
:105450005BB21800800804225043A64A1150F0BDE8
:105460001CB5040000200090E4B2002C08D0E4B287
:10547000012C05D0E4B2022C02D0E4B2032C2DD1D1
:105480009D480068E4B2042161430831C8404007E8
:10549000400F6946087168460079002803D100F082
:1054A0007CFC009018E068460079012803D1802038
:1054B0000002009010E068460079022803D100F055
:1054C000D3FC009008E068460079072802D1924892
:1054D000009001E0914802E0009800E0904816BD7D
:1054E000F0B505000C00022D01D3002C02D10020E4
:1054F000C04318E001200600FF2E12D8280021002A
:10550000714300F063FD0700022F08D380204004A0
:10551000874204D2761E30060743380003E0761C2B
:10552000EAE70020C043F0BD80B57E480068012155
:1055300001437C4801607C480068401C7A4908604F
:105540007A480068002811D078488068401E774962
:10555000886076488068002808D1744800697349DB
:10556000C968884771487149496881607048007806
:10557000401C6F4908706E4800780A2849D16C4871
:10558000002101706B480078401C6A490870694826
:1055900000780A283DD167480021017066480078EC
:1055A000401C65490870644800780A2831D1624877
:1055B0000021017061480078401C60490870604813
:1055C0000078002804D05E480078401E5C490870CE
:1055D0005A4800783C281CD158480021017059488D
:1055E0000078401C57490870564800783C2810D174
:1055F00054480021017054480078401C52490870FA
:1056000051480078182804D150480078401C4F4970
:10561000087001BD80B54E480068012101434C4827
:1056200001604C480068401C4A4908604A480068CC
:10563000002811D048488068401E47498860464885
:105640008068002808D1444800694349C9688847F0
:10565000414841494968816001BD00001CED00E0FE
:1056600080B53E480068012101433C4801603C4848
:105670000068401C3A4908603A480068002811D088
:1056800038488068401E374988603648806800285E
:1056900008D1344800693349C968884731483149DD
:1056A0004968816001BD000000E100E080B52E483E
:1056B0000068012101432C4801602C480068401C0F
:1056C0002A4908602A480068002811D028488068C4
:1056D000401E2749886026488068002808D1244851
:1056E00000692349C9688847214821494968816080
:1056F00001BD000000E400E0140200501D4801213B
:1057000001601D48012101601C4801210160BD4864
:105710000121016070470000008051010297FFFFE6
:105720000197FFFF08000140A40000201C0000209A
:10573000DA000020DB000020DC000020DD0000207B
:10574000E1000020DE000020DF000020E00000205B
:1057500028000140A800002030000020080011406F
:10576000AC0000204400002028001140B0000020C0
:105770005800002084000020880000208C000020B9
:10578000F5B581B00E00002768460079002807D0E3
:10579000022800D192E04AD3032800D1D5E01BE1D2
:1057A00099480068012803D198480068002801D072
:1057B000974825E195480121016096480068042139
:1057C00001439448016094480021016093480068B7
:1057D000012101439148016000200400002C06D102
:1057E000142060438E4900220A50641CF6E78D485D
:1057F000002101608C4806600020FFF731FE310077
:10580000FFF76EFE05000020C043854201D18748A6
:10581000F6E02802000A864908602800000E384396
:105820006946097AC90601437B480160D6E0814890
:105830000068012803D180480068002801D074481E
:10584000DEE07D48012101607248006808210143C3
:1058500070480160794800210160794800680121A1
:1058600001437748016000200400002C06D1142079
:105870006043744900220A50641CF6E77248002114
:105880000160724806600120FFF7EAFD3100FFF772
:1058900027FE05000020C043854201D16348AFE0E8
:1058A0002802000A6A4908602800000E3843694649
:1058B000097AC9060143614801608FE065480068C4
:1058C000012803D164480068002801D0504897E0BF
:1058D0006148012101604F480068102101434D4893
:1058E00001605E48002101605D48006801210143BC
:1058F0005B48016000200400002C06D114206043A6
:10590000584900220A50641CF6E7574800210160FC
:10591000564806600220FFF7A3FD3100FFF7E0FDC7
:1059200005000020C043854201D1404868E02802BC
:10593000000A4F4908602800000E38436946097A7A
:10594000C90601434548016048E02E480068012827
:1059500003D148480068002801D02D4850E0454850
:10596000012101602B480068202101432948016082
:1059700041480021016041480068012101433F483E
:10598000016000200400002C06D1142060433C4933
:1059900000220A50641CF6E73A48002101603A48A8
:1059A00006600320FFF75CFD3100FFF799FD05005D
:1059B0000020C043854201D11C4821E02802000A92
:1059C000324908602800000E38436946097AC90642
:1059D00001432948016001E02D4811E06846007A42
:1059E00002280CD1684600790028032805D86846AB
:1059F00000790F30C0B2FEF71FFE254800E00020FE
:105A0000FEBD0000900000208400002094000020D3
:105A10000397FFFF0802005000000140080001400A
:105A20001C000020A4000020B40000200297FFFF0B
:105A30000400014088000020980000202000014060
:105A40002800014030000020A8000020B8000020FD
:105A5000240001408C0000209C0000200000114028
:105A60000800114044000020AC000020BC000020D1
:105A700004001140A0000020200011402800114027
:105A800058000020B0000020C00000202400114079
:105A90000197FFFF38B50400E4B220000028032876
:105AA00019D8E4B20420604318490858184940182E
:105AB0000500286880218905014329600221200012
:105AC000083040B2FFF785FC2000083040B2FFF7F5
:105AD00079FC002000E00F4832BD000000B5010055
